:04000000CDEF19F037
:10080000005468652074656D7065726174757265F9
:100810002069733A004465677265652043656C73AF
:100820006975730054656D703A20252E3266005646
:1008300065727920486F74004E6F726D616C004371
:0D0840006F6C6400696E66006E616E0000F2
:10084E00000E0001816F56C082F057C083F058C071
:10085E0084F059C085F085BF39EF04F037EF04F00E
:10086E004DEF04F0010E816F82C001F083C002F0E3
:10087E0084C003F085C004F068EC19F001C082F06A
:10088E0002C083F003C084F004C085F0000E0001A6
:10089E00876F000E866FDAC071F0DBC072F0815187
:1008AE00D8B45CEF04F05EEF04F072EF04F0815107
:1008BE00D8A464EF04F066EF04F06CEF04F0000EC1
:1008CE00676F2B0E666F70EF04F0000E676F2D0EC4
:1008DE00666F66C081F082C001F083C002F084C0F2
:1008EE0003F085C004F054EC15F001040210D8A4F6
:1008FE0083EF04F085EF04F0B8EF04F000018151AE
:10090E00D8B48CEF04F08EEF04F097EF04F081C0B2
:10091E0000F17107D8A07207000E876F010E866F67
:10092E00000E8625016E010E8721026E440E036EA7
:10093E004BEC19F00001FD0E7127FF0E722355C00E
:10094E000FF0000E106E010E116E71C012F072C01B
:10095E0013F097EC17F00FC055F010C056F022EFC1
:10096E0009F082C001F083C002F084C003F085C09C
:10097E0004F054EC15F001500210D8A4C9EF04F0A5
:10098E00CBEF04F0E9EF04F000018151D8B4D2EFBF
:10099E0004F0D4EF04F0DDEF04F081C000F1710734
:1009AE00D8A07207000E876F010E866F000E862587
:1009BE00016E010E8721026E480E036E4BEC19F08C
:1009CE00A1EF04F0000E0001886F000E896F800EFB
:1009DE008A6F3F0E8B6F000E706F000E6F6F82C0AE
:1009EE0001F083C002F084C003F085C004F0000E55
:1009FE00056E000E066E000E076E000E086E9FEC62
:100A0E0016F0D8B00DEF05F00FEF05F0EEEF05F094
:100A1E001CEF05F073C088F074C089F075C08AF0C1
:100A2E0076C08BF000016F4B702B88C00FF089C021
:100A3E0010F08AC011F08BC012F0000E136E000E73
:100A4E00146E200E156E410E166E83EC0BF00FC059
:100A5E0073F010C074F011C075F012C076F0000182
:100A6E007351825D016E74518359026E75518459B2
:100A7E00036E76518559046E69EC18F004BE53EF7F
:100A8E0005F004500310021009E1020E015CD8A01B
:100A9E0053EF05F055EF05F011EF05F073C028F098
:100AAE0074C029F075C02AF076C02BF082C02CF0ED
:100ABE0083C02DF084C02EF085C02FF0D2EC14F040
:100ACE00D8A06CEF05F06EEF05F011EF05F0000108
:100ADE008851825D016E89518359026E8A51845903
:100AEE00036E8B518559046E69EC18F004BE8DEFC0
:100AFE0005F004500310021007E1020E015CD8B09D
:100B0E008BEF05F08DEF05F0D5EF05F088C082F084
:100B1E0089C083F08AC084F08BC085F0EEEF05F0BB
:100B2E0088C028F089C029F08AC02AF08BC02BF02B
:100B3E00000E2C6E000E2D6E200E2E6E410E2F6EA0
:100B4E0098EC0DF028C088F029C089F02AC08AF0F0
:100B5E002BC08BF000016F07D8A070078851825D03
:100B6E00016E89518359026E8A518459036E8B51DD
:100B7E008559046E69EC18F004BED3EF05F00450ED
:100B8E000310021007E1020E015CD8B0D1EF05F0A0
:100B9E00D3EF05F0D5EF05F08DEF05F082C028F00C
:100BAE0083C029F084C02AF085C02BF088C02CF0B9
:100BBE0089C02DF08AC02EF08BC02FF0D2EC14F02D
:100BCE00D8A0ECEF05F0EEEF05F097EF05F05AC068
:100BDE0069F069C06AF00001DDBFF8EF05F0FAEFC9
:100BEE0005F000EF06F0DCC062F0DDC063F004EF4C
:100BFE0006F0000E636F060E626F62C06DF063C08A
:100C0E006EF06D4B6E2B660E6A19D8A411EF06F0BE
:100C1E0013EF06F033EF06F070BF1AEF06F018EF81
:100C2E0006F026EF06F0000E886F000E896F800E1C
:100C3E008A6F3F0E8B6F000E706F000E6F6F670E18
:100C4E006919D8B42DEF06F02FEF06F033EF06F04A
:100C5E006F516D2770516E23000E786F000E776FF7
:100C6E0082C079F083C07AF084C07BF085C07CF0BE
:100C7E0088C073F089C074F08AC075F08BC076F0AE
:100C8E00C4EF06F079C028F07AC029F07BC02AF0B4
:100C9E007CC02BF088C02CF089C02DF08AC02EF0BD
:100CAE008BC02FF098EC0DF028C041F029C042F017
:100CBE002AC043F02BC044F065EC0FF041C07DF02C
:100CCE0042C07EF043C07FF044C080F07DC001F092
:100CDE007EC002F07FC003F080C004F04FEC14F031
:100CEE0001C06BF002C06CF079C028F07AC029F018
:100CFE007BC02AF07CC02BF07DC013F07EC014F0B8
:100D0E007FC015F080C016F088C00FF089C010F0BB
:100D1E008AC011F08BC012F083EC0BF00FC02CF0D8
:100D2E0010C02DF011C02EF012C02FF0E5EC18F00F
:100D3E0028C079F029C07AF02AC07BF02BC07CF055
:100D4E0088C028F089C029F08AC02AF08BC02BF009
:100D5E00000E2C6E000E2D6E200E2E6E410E2F6E7E
:100D6E0098EC0DF028C088F029C089F02AC08AF0CE
:100D7E002BC08BF00001774B782B6D51775D78513E
:100D8E00800A5B6E6E51800A5B58D8A0D1EF06F0D8
:100D9E00D3EF06F049EF06F088C00FF089C010F0CF
:100DAE008AC011F08BC012F0000E136E000E146E7E
:100DBE00A00E156E400E166E83EC0BF00FC07DF07C
:100DCE0010C07EF011C07FF012C080F079C028F004
:100DDE007AC029F07BC02AF07CC02BF07DC02CF0AD
:100DEE007EC02DF07FC02EF080C02FF0D2EC14F01C
:100DFE00D8B004EF07F006EF07F011EF07F0000E82
:100E0E0000017D6F000E7E6F000E7F6F000E806FF3
:100E1E003AEF07F079C001F07AC002F07BC003F020
:100E2E007CC004F07DC005F07EC006F07FC007F0E8
:100E3E0080C008F09FEC16F0D8A028EF07F02AEF3C
:100E4E0007F03AEF07F000016BB130EF07F032EF29
:100E5E0007F03AEF07F0000E7D6F000E7E6F000E6A
:100E6E007F6F000E806F82C001F083C002F084C0DD
:100E7E0003F085C004F07DC005F07EC006F07FC093
:100E8E0007F080C008F023EC09F001C079F002C031
:100E9E007AF003C07BF004C07CF079C028F07AC0F1
:100EAE0029F07BC02AF07CC02BF0000E136E000ED2
:100EBE00146E200E156E410E166E73C00FF074C0B8
:100ECE0010F075C011F076C012F083EC0BF00FC06D
:100EDE002CF010C02DF011C02EF012C02FF0D2EC5D
:100EEE0014F0D8A07DEF07F07FEF07F0A8EF07F022
:100EFE0000016F4B702B73C00FF074C010F075C0F3
:100F0E0011F076C012F0000E136E000E146E200E4D
:100F1E00156E410E166E83EC0BF00FC073F010C001
:100F2E0074F011C075F012C076F0660E00016A19E9
:100F3E00D8A4A4EF07F0A6EF07F0A8EF07F06D4BCB
:100F4E006E2B73C088F074C089F075C08AF076C0BD
:100F5E008BF06FC060F070C061F0000E0001686F22
:100F6E00000E656F000E646F000E786F000E776FC7
:100F7E00A6EF08F079C028F07AC029F07BC02AF0DD
:100F8E007CC02BF088C02CF089C02DF08AC02EF0CA
:100F9E008BC02FF098EC0DF028C041F029C042F024
:100FAE002AC043F02BC044F065EC0FF041C07DF039
:100FBE0042C07EF043C07FF044C080F07DC001F09F
:100FCE007EC002F07FC003F080C004F04FEC14F03E
:100FDE0002BEFDEF07F0025007E10A0E015CD8B029
:100FEE00FBEF07F0FDEF07F00DEF08F07DC001F00D
:100FFE007EC002F07FC003F080C004F04FEC14F00E
:10100E0001C06BF002C06CF012EF08F0000E000190
:10101E006C6F090E6B6F00016851D8A419EF08F0C0
:10102E001BEF08F043EF08F061BF22EF08F020EF4E
:10103E0008F043EF08F0000E8625D96E010E8721C9
:10104E00DA6E2E0EDF6E864B872B7107D8A07207D5
:10105E00010E686F43EF08F0000E8625D96E010E63
:10106E008721DA6E300EDF6E864B872B7107D8A084
:10107E0072076407D8A0650764516511D8A44AEFBA
:10108E0008F04CEF08F033EF08F0000E8625D96E0D
:10109E00010E8721DA6E6B51300FDF6E864B872B78
:1010AE007107D8A0720779C028F07AC029F07BC0EA
:1010BE002AF07CC02BF07DC013F07EC014F07FC0F0
:1010CE0015F080C016F088C00FF089C010F08AC0ED
:1010DE0011F08BC012F083EC0BF00FC02CF010C08F
:1010EE002DF011C02EF012C02FF0E5EC18F028C034
:1010FE0079F029C07AF02AC07BF02BC07CF088C032
:10110E0028F089C029F08AC02AF08BC02BF0000E7F
:10111E002C6E000E2D6E200E2E6E410E2F6E98EC44
:10112E000DF028C088F029C089F02AC08AF02BC0A3
:10113E008BF000016007D8A06107774B782B6D51BB
:10114E00775D7851800A5B6E6E51800A5B58D8B01D
:10115E00B3EF08F0B5EF08F0C3EF08F087BFC1EFAB
:10116E0008F0875109E14B0E865DD8A0C1EF08F05B
:10117E00C3EF08F0C1EF07F0000E786F4F0E776FD8
:10118E00000E7725D96E010E7821DA6EDF6A000E19
:10119E005B6E010E5C6E86515B5E87515C5A7751B9
:1011AE005B24016E78515C20026E000E036E010E00
:1011BE00046E86C005F087C006F0BDEC18F0000185
:1011CE008651775D866F87517859876F8151D8A484
:1011DE00F3EF08F0F6EF08F0010EF7EF08F0000E4F
:1011EE00776F786B8151D8B4FFEF08F001EF09F0FB
:1011FE000CEF09F08607D8A08707000E8625D96E5A
:10120E00010E8721DA6E81C0DFFF7751715F785151
:10121E00725B55C00FF0000E8625106E010E8721F1
:10122E00116E71C012F072C013F097EC17F00FC070
:10123E0055F010C056F012000450800B0D6E045085
:10124E0004240F6E03AE2EEF09F030EF09F031EFEC
:10125E0009F00F800F50D8B437EF09F039EF09F0CD
:10126E004EEF09F00F28D8A43FEF09F041EF09F037
:10127E0049EF09F0000E016E000E026E000E036EB5
:10128E00000E046E038E000E046E56EF09F0000E73
:10129E00016E000E026E000E036E000E046E0850FC
:1012AE00800B0E6E0D500E18D8B460EF09F062EF81
:1012BE0009F063EF09F00D8C085008240E6E07AE8E
:1012CE006BEF09F06DEF09F06EEF09F00E800E5026
:1012DE00D8B474EF09F076EF09F08BEF09F00E2811
:1012EE00D8A47CEF09F07EEF09F086EF09F0000E2E
:1012FE00056E000E066E000E076E000E086E078E4F
:10130E00000E086E93EF09F0000E056E000E066ECD
:10131E00000E076E000E086E0F500E5CD8B09AEFDE
:10132E0009F09CEF09F0C3EF09F00DACA1EF09F045
:10133E00A3EF09F0A5EF09F0800E0D1A0FC010F003
:10134E000EC00FF010C00EF001C010F005C001F07D
:10135E0010C005F002C010F006C002F010C006F07A
:10136E0003C010F007C003F010C007F004C010F067
:10137E0008C004F010C008F0000E106E0F500EC022
:10138E0009F00A6A095E000E0A5A0ABED8EF09F081
:10139E000A5009E11A0E095CD8A0D8EF09F0DAEF6D
:1013AE0009F011EF0AF00150021003100410D8A436
:1013BE00E3EF09F0E6EF09F0010EE7EF09F0000E9A
:1013CE00106E000E016E000E026E000E036E000E09
:1013DE00046E0EC00FF01AEF0AF010A0F9EF09F02C
:1013EE00FBEF09F001EF0AF0D89010300109106EF2
:1013FE0003EF0AF0D890103201A008EF0AF00AEFBE
:10140E000AF00BEF0AF0108E04340432033202326B
:10141E0001320F2A0E500F5CD8A018EF0AF01AEF07
:10142E000AF0F4EF09F00DBC1FEF0AF021EF0AF0FD
:10143E0061EF0AF00F50D8A427EF0AF029EF0AF057
:10144E0033EF0AF0000E016E000E026E000E036EF8
:10145E00000E046E82EF0BF005500126065002229C
:10146E00075003220850042204A040EF0AF042EF76
:10147E000AF0EEEF0AF010A047EF0AF049EF0AF07B
:10148E004FEF0AF0D89010300109106E51EF0AF0AC
:10149E00D890103201A056EF0AF058EF0AF059EF2B
:1014AE000AF0108E043404320332023201320F2A53
:1014BE00EEEF0AF00550015C065002580750035833
:1014CE000450800A096E0850800A0958D8B072EF8D
:1014DE000AF074EF0AF09FEF0AF00150055C096EF6
:1014EE00025006580A6E035007580B6E04500858E7
:1014FE000C6EFF0E0924016EFF0E0A20026EFF0E07
:10150E000B20036EFF0E0C20046E800E0D1A106C55
:10151E001050D8A495EF0AF097EF0AF0A7EF0AF053
:10152E00010E0126000E022203220422A7EF0AF06A
:10153E000550015E0650025A0750035A0850045ACD
:10154E000150021003100410D8A4B0EF0AF0B2EF4D
:10155E000AF0E7EF0AF01050D8A4B8EF0AF0BAEF8D
:10156E000AF0E7EF0AF0000E016E000E026E000E9A
:10157E00036E000E046E82EF0BF0D8900136023629
:10158E000336043610AECEEF0AF0D0EF0AF0D1EFEC
:10159E000AF0018010A0D6EF0AF0D8EF0AF0DCEFC7
:1015AE000AF0D8801036DEEF0AF0D89010360F50C1
:1015BE00D8B4E4EF0AF0E6EF0AF0E7EF0AF00F0610
:1015CE0003AEECEF0AF0EEEF0AF0C4EF0AF0000EF5
:1015DE000E6E10AEF5EF0AF0F7EF0AF00FEF0BF00C
:1015EE0010C009F07F0E0916D8B400EF0BF002EF11
:1015FE000BF006EF0BF0010E0E6E0FEF0BF001A0CD
:10160E000BEF0BF00DEF0BF00FEF0BF002EF0BF0FB
:10161E000E50D8B415EF0BF017EF0BF042EF0BF0A6
:10162E00010E0126000E02220322042204A022EF44
:10163E000BF024EF0BF042EF0BF001C009F002C0EB
:10164E000AF003C00BF004C00CF00C340C320B3259
:10165E000A32093209C001F00AC002F00BC003F0D1
:10166E000CC004F00F28D8B43FEF0BF041EF0BF095
:10167E0042EF0BF00F2A0F28D8B448EF0BF04AEFC9
:10168E000BF052EF0BF00F50D8A450EF0BF052EFBF
:10169E000BF064EF0BF0000E016E000E026E000EEA
:1016AE00036E000E046E0F50D8A460EF0BF062EFC5
:1016BE000BF064EF0BF0000E0D6E0FA069EF0BF048
:1016CE006BEF0BF06EEF0BF0038E6FEF0BF0039ED4
:1016DE00D8900F30046E0DAE77EF0BF079EF0BF064
:1016EE007AEF0BF0048E01C001F002C002F003C0CD
:1016FE0003F004C004F012001250800B1B6E125047
:10170E001224216E11AE8EEF0BF090EF0BF091EFD5
:10171E000BF021802150D8B497EF0BF099EF0BF01E
:10172E00ACEF0BF02128D8A49FEF0BF0A1EF0BF03C
:10173E00A9EF0BF0000E0F6E000E106E000E116E64
:10174E00000E126E118EB4EF0BF0000E0F6E000E27
:10175E00106E000E116E000E126E1650800B1B1ABC
:10176E0016501624206E15AEBFEF0BF0C1EF0BF026
:10177E00C2EF0BF020802050D8B4C8EF0BF0CAEFA8
:10178E000BF0DDEF0BF02028D8A4D0EF0BF0D2EF4A
:10179E000BF0DAEF0BF0000E136E000E146E000E4F
:1017AE00156E000E166E158EE5EF0BF0000E136E15
:1017BE00000E146E000E156E000E166E2050D8B46C
:1017CE00EBEF0BF0EDEF0BF0F5EF0BF02150D8A493
:1017DE00F3EF0BF0F5EF0BF0FFEF0BF0000E0F6ECB
:1017EE00000E106E000E116E000E126E97EF0DF0C1
:1017FE0015500F02F3CF26F0F4CF27F026501C6EB3
:10180E001D6A1E6A1F6A2750226E236A246A256A81
:10181E0014501002F3CF26F0F4CF27F026501C26DA
:10182E00000E1D221E221F2227502226000E2322CA
:10183E002422252213501102F3CF26F0F4CF27F0E5
:10184E0026501C26000E1D221E221F222750222645
:10185E00000E2322242225221EC01FF01DC01EF0C2
:10186E001CC01DF01C6A13501002F3CF26F0F4CFEB
:10187E0027F026501C2627501D22000E1E22000E79
:10188E001F2214500F02F3CF26F0F4CF27F026506C
:10189E001C2627501D22000E1E22000E1F221EC0C7
:1018AE001FF01DC01EF01CC01DF01C6A13500F024D
:1018BE00F3CF26F0F4CF27F026501C2627501D22FA
:1018CE00000E1E22000E1F2215501002F3CF26F01E
:1018DE00F4CF27F02650222627502322000E242252
:1018EE00000E252214501102F3CF26F0F4CF27F06C
:1018FE002650222627502322000E2422000E2522B7
:10190E0015501102F3CF26F0F4CF27F02650176EA4
:10191E002750186E196A1A6A19C01AF018C019F0F1
:10192E0017C018F0176A1750222618502322195084
:10193E0024221A5025221CC017F01DC018F01EC0FC
:10194E0019F01FC01AF0190EB2EF0CF0D8901A321F
:10195E00193218321732E82EADEF0CF0175022263E
:10196E0018502322195024221A5025221EC01FF06F
:10197E001DC01EF01CC01DF01C6A205021C017F0A7
:10198E00186A1726000E1822820E1724266EFF0ED6
:10199E001820276EE8EF0CF0D89022362336243626
:1019AE0025361FAEDDEF0CF0DFEF0CF0E0EF0CF0A4
:1019BE002280D8901C361D361E361F362606D8A01D
:1019CE00270624AEEDEF0CF0EFEF0CF0D3EF0CF09A
:1019DE00000E206E1FAEF6EF0CF0F8EF0CF01CEFC1
:1019EE000DF0FF0E1C14176EFF0E1D14186EFF0E59
:1019FE001E14196E7F0E1F141A6E17501810191020
:101A0E001A10D8B40DEF0DF00FEF0DF013EF0DF01F
:101A1E00010E206E1CEF0DF022A018EF0DF01AEF44
:101A2E000DF01CEF0DF00FEF0DF02050D8B422EF9B
:101A3E000DF024EF0DF048EF0DF0010E2226000EF2
:101A4E0023222422252225A02FEF0DF031EF0DF0B9
:101A5E0048EF0DF022C017F023C018F024C019F083
:101A6E0025C01AF01A341A3219321832173217C02A
:101A7E0022F018C023F019C024F01AC025F0264A0F
:101A8E00272A27BE53EF0DF0275008E12628D8A0AD
:101A9E0053EF0DF055EF0DF05FEF0DF0000E226ECF
:101AAE00000E236E800E246E7F0E256E8DEF0DF0D0
:101ABE0027BE6CEF0DF0275006E12604D8B06AEF72
:101ACE000DF06CEF0DF078EF0DF0000E226E000EA3
:101ADE00236E000E246E000E256E000E1B6E8DEF13
:101AEE000DF026C021F0FF0E2216FF0E23167F0EDC
:101AFE002416000E251621A087EF0DF089EF0DF0AC
:101B0E008AEF0DF0248ED8902130256E1B502512B1
:101B1E0022C00FF023C010F024C011F025C012F027
:101B2E0012002B50800B386E2B502B243F6E2AAE9A
:101B3E00A3EF0DF0A5EF0DF0A6EF0DF03F803F5097
:101B4E00D8B4ACEF0DF0AEEF0DF0C3EF0DF03F28B3
:101B5E00D8A4B4EF0DF0B6EF0DF0BEEF0DF0000E01
:101B6E00286E000E296E000E2A6E000E2B6E2A8E27
:101B7E00000E2B6ECBEF0DF0000E286E000E296EB0
:101B8E00000E2A6E000E2B6E2F50800B381A2F501F
:101B9E002F24406E2EAED6EF0DF0D8EF0DF0D9EF0C
:101BAE000DF040804050D8B4DFEF0DF0E1EF0DF0B6
:101BBE00F6EF0DF04028D8A4E7EF0DF0E9EF0DF0A9
:101BCE00F1EF0DF0000E2C6E000E2D6E000E2E6E2F
:101BDE00000E2F6E2E8E000E2F6EFEEF0DF0000EED
:101BEE002C6E000E2D6E000E2E6E000E2F6E2C50D3
:101BFE002D102E102F10D8A407EF0EF009EF0EF0B7
:101C0E0021EF0EF0000E286E000E296E000E2A6EC9
:101C1E00000E2B6E800E2A127F0E2B1238502B12B6
:101C2E0028C028F029C029F02AC02AF02BC02BF09A
:101C3E0064EF0FF03F50D8A427EF0EF029EF0EF00F
:101C4E0033EF0EF0000E286E000E296E000E2A6E77
:101C5E00000E2B6E64EF0FF040503FC030F0316A33
:101C6E00305E000E315A7F0E3024396E000E312058
:101C7E003A6E28C034F029C035F02AC036F02BC099
:101C8E0037F0000E286E000E296E000E2A6E000E22
:101C9E002B6E000E3B6E000E3C6E000E3D6E000E67
:101CAE003E6E000E406E94EF0EF04050D8B462EFD0
:101CBE000EF064EF0EF07BEF0EF0D8903436353622
:101CCE0036363736D890283629362A362B363EAE5B
:101CDE0073EF0EF075EF0EF076EF0EF02880D890C1
:101CEE003B363C363D363E362C50345C2D50355806
:101CFE002E5036582F503758D8A088EF0EF08AEF56
:101D0E000EF093EF0EF03E8C2C50345E2D50355A63
:101D1E002E50365A2F50375A402A190E40649AEFD9
:101D2E000EF09CEF0EF05CEF0EF0345035103610C6
:101D3E003710D8B4A5EF0EF0A7EF0EF0BFEF0EF0F0
:101D4E003B80BFEF0EF0D890283629362A362B3638
:101D5E003EAEB4EF0EF0B6EF0EF0B7EF0EF02880F9
:101D6E00D8903B363C363D363E363906D8A03A063C
:101D7E002AAEC4EF0EF0C6EF0EF0AAEF0EF0000E74
:101D8E00406E3EAECDEF0EF0CFEF0EF0F3EF0EF055
:101D9E00FF0E3B14306EFF0E3C14316EFF0E3D14E1
:101DAE00326E7F0E3E14336E3050311032103310BF
:101DBE00D8B4E4EF0EF0E6EF0EF0EAEF0EF0010EFF
:101DCE00406EF3EF0EF028A0EFEF0EF0F1EF0EF0F5
:101DDE00F3EF0EF0E6EF0EF04050D8B4F9EF0EF040
:101DEE00FBEF0EF01FEF0FF0010E2826000E29223A
:101DFE002A222B222BA006EF0FF008EF0FF01FEF79
:101E0E000FF028C030F029C031F02AC032F02BC0BC
:101E1E0033F03334333232323132303230C028F094
:101E2E0031C029F032C02AF033C02BF0394A3A2A99
:101E3E003ABE2AEF0FF03A5008E13928D8A02AEF1F
:101E4E000FF02CEF0FF037EF0FF0000E3A6E3968EF
:101E5E00000E286E000E296E000E2A6E000E2B6EDE
:101E6E003ABE44EF0FF03A5006E13904D8B042EFD3
:101E7E000FF044EF0FF052EF0FF0000E3A6E000E1F
:101E8E00396E000E286E000E296E000E2A6E000EA0
:101E9E002B6E000E386E39C03FF03FA059EF0FF099
:101EAE005BEF0FF05EEF0FF02A8E5FEF0FF02A9EC2
:101EBE00D8903F302B6E15EF0EF01200D0C051F0BF
:101ECE00D1C052F0D2C053F0D3C054F041C051F043
:101EDE0042C052F043C053F044C054F0810E456EE0
:101EEE00FF0E466E51C047F052C048F053C049F045
:101EFE0054C04AF0180E89EF0FF0D8904A3249328A
:101F0E0048324732E82E84EF0FF0475045244F6E8B
:101F1E00000E4620506E50BE9EEF0FF0505009E15D
:101F2E00170E4F5CD8A09EEF0FF0A0EF0FF0AAEFA8
:101F3E000FF041C041F042C042F043C043F044C0F4
:101F4E0044F06DEF10F050BEAFEF0FF0B1EF0FF0A9
:101F5E0021EF10F04FC045F0FF0E466EFF0E476E9C
:101F6E007F0E486E000E496E4566C0EF0FF0C8EF4B
:101F7E000FF049344932483247324632452EBBEFD4
:101F8E000FF046C04BF047C04CF048C04DF049C072
:101F9E004EF04B505114456E4C505214466E4D50EF
:101FAE005314476E4E505414486E45504610471009
:101FBE004810D8A4E5EF0FF0E7EF0FF0E9EF0FF0C0
:101FCE00A0EF0FF051C045F052C046F053C047F09D
:101FDE0054C048F0200EF9EF0FF0D8904832473237
:101FEE0046324532E82EF4EF0FF0455046104710BA
:101FFE004810D8B405EF10F007EF10F00FEF10F007
:10200E004B5051264C5052224D5053224E5054227A
:10201E004B1C456E4C1C466E4D1C476E4E1C486E3E
:10202E0045505116465052164750531648505416A6
:10203E0065EF10F051C045F052C046F053C047F066
:10204E0054C048F0200E31EF10F0D890483247328D
:10205E0046324532E82E2CEF10F045504610471010
:10206E004810D8A43DEF10F03FEF10F049EF10F0FC
:10207E00000E516E000E526E000E536E000E546E18
:10208E0065EF10F0D8905134456E5234466E53348D
:10209E00476E5434486E4550461047104810D8B419
:1020AE005BEF10F05DEF10F065EF10F0000E516E6B
:1020BE00000E526E800E536EBF0E546E51C041F024
:1020CE0052C042F053C043F054C044F012005E5070
:1020DE00D96EDA6ADFCFF6FF080EF76E0800F550FC
:1020EE00250AD8A47DEF10F07FEF10F04DEF11F020
:1020FE005E50D96EDA6ADF2A000E0001DB6F000E29
:10210E00DA6FDAC0E0F0DC69DD695E50D96EDA6A4A
:10211E00DFCFF6FF080EF76E0800F5502E0AD8A492
:10212E009BEF10F09DEF10F0ABEF10F05E50D96EFC
:10213E00DA6ADF2A5EC007F05FC008F0F4EC16F032
:10214E0007C0DCF008C0DDF05E50D96EDA6ADF50F1
:10215E000001926F92C0F6FF080EF76E0800F5CFE1
:10216E0091F0C5EF10F0922BD4EF10F06C0E916F32
:10217E00D4EF10F0000E916FD4EF10F091514C0A85
:10218E00D8B4BAEF10F02A0AD8B4BDEF10F00A0A8C
:10219E00D8B4BAEF10F0C1EF10F092C0F6FF080EEF
:1021AE00F76E0800F550660AD8A4E0EF10F0E2EFE3
:1021BE0010F043EF11F00CEF11F05F50D96EDA6AA8
:1021CE00DFCF8CF0040EDF268C51D96EDA6ADECFAB
:1021DE008DF0DECF8EF0DECF8FF0DECF90F017EFEA
:1021EE0011F05F50D96EDA6ADFCF8CF0040EDF2665
:1021FE008C51D96EDA6ADECF8DF0DECF8EF0DECF67
:10220E008FF0DECF90F017EF11F091514C0AD8B449
:10221E00F8EF10F0200AD8B4E4EF10F017EF11F039
:10222E005E50D96EDA6A9229DF6E37EF11F05DC01B
:10223E0055F08DC056F08EC057F08FC058F090C03C
:10224E0059F092C0F6FF080EF76E0800F5CF5AF05F
:10225E0027EC04F055C05DF056C05EF064EF11F04F
:10226E0092C0F6FF080EF76E0800F550660AD8B455
:10227E001EEF11F043EF11F05E50D96EDA6ADF2ACD
:10228E00000E5E6E000E5D6E64EF11F05E50D96E44
:10229E00DA6ADFCFF6FF080EF76E0800F550016E12
:1022AE00026A5DC003F04AEC16F05E50D96EDA6A2F
:1022BE00DF2A000E5E6E010E5D6E1200010EBDEC89
:1022CE0013F00D0E0001B76FFB0EE82EFED7B72FE1
:1022DE00FCD700D0010E046E010E3BEC18F0B80EC8
:1022EE000001976F000E996F100E986F240E9A6F63
:1022FE00B3C09BF0B4C09CF0B5C09DF0B6C09EF0CC
:10230E00D3EC15F0B80E046E056A0CEC18F0010E45
:10231E00046E020E3BEC18F0150E046E0450D8A499
:10232E00080E056E0CEC18F0010E046E030E3BEC5D
:10233E0018F0010E046E0450D8A4080E056E0CECB5
:10234E0018F0010E046E040E3BEC18F0000E286E11
:10235E00000E296E700E2A6E410E2B6EB3C02CF03D
:10236E00B4C02DF0B5C02EF0B6C02FF0D2EC14F0E4
:10237E00D8A0C4EF11F0C6EF11F0D0EF11F03F0E60
:10238E00046E0450D8A4080E056E0CEC18F050EF35
:10239E0012F0000E286E000E296E700E2A6E410E7F
:1023AE002B6EB3C02CF0B4C02DF0B5C02EF0B6C05D
:1023BE002FF0D2EC14F0D8B0E7EF11F0E9EF11F0F6
:1023CE000CEF12F0000E286E000E296ED80E2A6E3B
:1023DE00410E2B6EB3C02CF0B4C02DF0B5C02EF054
:1023EE00B6C02FF0D2EC14F0D8A000EF12F002EF2E
:1023FE0012F00CEF12F0380E046E0450D8A4080E32
:10240E00056E0CEC18F050EF12F0000E286E000E58
:10241E00296ED80E2A6E410E2B6EB3C02CF0B4C0AE
:10242E002DF0B5C02EF0B6C02FF0D2EC14F0D8B00F
:10243E0023EF12F025EF12F048EF12F0000E286E87
:10244E00000E296EF00E2A6E410E2B6EB3C02CF0CC
:10245E00B4C02DF0B5C02EF0B6C02FF0D2EC14F0F3
:10246E00D8A03CEF12F03EEF12F048EF12F0340E0F
:10247E00046E0450D8A4080E056E0CEC18F050EF44
:10248E0012F02F0E046E0450D8A4080E056E0CEC3C
:10249E0018F01200096E0950D8B458EF12F05AEF26
:1024AE0012F07CEF12F004BE61EF12F05FEF12F04B
:1024BE007CEF12F001C005F002C006F003C007F079
:1024CE0004C008F0051E061E071E081E052A000E73
:1024DE0006220722082205C00BF006C00CF007C02A
:1024EE000DF008C00EF084EF12F001C00BF002C028
:1024FE000CF003C00DF004C00EF0015002100310DA
:10250E000410D8A48DEF12F08FEF12F099EF12F0A5
:10251E00000E016E000E026E000E036E000E046EB3
:10252E002AEF13F0960E0A6EA3EF12F00A2AD89035
:10253E000E320D320C320B32000E0B14056E000EE5
:10254E000C14066E000E0D14076EFE0E0E14086EA1
:10255E000550061007100810D8A4B8EF12F0BAEF05
:10256E0012F09DEF12F0C8EF12F00A2A010E0B26A0
:10257E00000E0C220D220E22D8900E320D320C328D
:10258E000B32000E0B14056E000E0C14066E000EB0
:10259E000D14076EFF0E0E14086E05500610071070
:1025AE000810D8A4DDEF12F0DFEF12F0BCEF12F03E
:1025BE00E7EF12F00A06D8900B360C360D360E36B3
:1025CE000DBEECEF12F0EEEF12F0F6EF12F0020E7F
:1025DE000A60F4EF12F0F6EF12F0E1EF12F00AB02B
:1025EE00FBEF12F0FDEF12F0FEEF12F00D9ED89001
:1025FE000A320AC005F0066A076A086A05C008F0C2
:10260E00076A066A056A05500B1206500C1207502F
:10261E000D1208500E120950D8B418EF13F01AEF1D
:10262E0013F022EF13F004BE21EF13F01FEF13F09F
:10263E0022EF13F00E8E0BC001F00CC002F00DC095
:10264E0003F00EC004F01200036E8C8003C001F084
:10265E00013A0F0E0116010E0116013A8C500118A7
:10266E00EF0B01188C6E03C001F0050E026ED890B0
:10267E000132022E3EEF13F0010E0116013A014611
:10268E008C500118DF0B01188C6E03C001F0060E82
:10269E00026ED8900132022E50EF13F0010E011689
:1026AE00013A014601468C500118BF0B01188C6E81
:1026BE00016A03AE01D0012A010E01160132013268
:1026CE008C5001187F0B01188C6E8C821A0EE82E1E
:1026DE00FED700D08C921A0EE82EFED700D003C083
:1026EE0001F0010E0116013A8C500118EF0B011882
:1026FE008C6E03C001F0D8900132010E0116013A22
:10270E0001468C500118DF0B01188C6E03C001F0CE
:10271E00D8900132D8900132010E0116013A0146CD
:10272E0001468C500118BF0B01188C6E03C001F0CE
:10273E00D8900132D8900132D8900132010E011694
:10274E00013201328C5001187F0B01188C6E8C8275
:10275E001A0EE82EFED700D08C92060E016E300EA9
:10276E00E82EFED7012EFCD700D01200036E8C90FF
:10277E0003C001F0013A0F0E0116010E0116013AC7
:10278E008C500118EF0B01188C6E03C001F0050E72
:10279E00026ED8900132022ED0EF13F0010E011608
:1027AE00013A01468C500118DF0B01188C6E03C0E4
:1027BE0001F0060E026ED8900132022EE2EF13F0F7
:1027CE00010E0116013A014601468C500118BF0B4D
:1027DE0001188C6E016A03AE01D0012A010E01169A
:1027EE00013201328C5001187F0B01188C6E8C82D5
:1027FE001A0EE82EFED700D08C921A0EE82EFED7B7
:10280E0000D003C001F0010E0116013A8C500118E0
:10281E00EF0B01188C6E03C001F0D8900132010E3F
:10282E000116013A01468C500118DF0B01188C6E0F
:10283E0003C001F0D8900132D8900132010E01167A
:10284E00013A014601468C500118BF0B01188C6EDF
:10285E0003C001F0D8900132D8900132D8900132E5
:10286E00010E0116013201328C5001187F0B011836
:10287E008C6E8C821A0EE82EFED700D08C92060E2D
:10288E00016E300EE82EFED7012EFCD700D01200BE
:10289E00033404340A6E0A50D8A458EF14F05AEFD9
:1028AE0014F064EF14F0000E016E000E026E000EB6
:1028BE00036E000E046ED1EF14F001C005F002C0DD
:1028CE0006F003C007F004C008F0200E74EF14F0F9
:1028DE00D8900832073206320532E82E6FEF14F028
:1028EE000550096E038EFF0E0116FF0E0216FF0E27
:1028FE000316000E0416960E0A5E0ABE8BEF14F037
:10290E0089EF14F0A1EF14F00A50800A970FD8B097
:10291E0093EF14F095EF14F097EF14F05AEF14F0C4
:10292E00D89004320332023201320A3E97EF14F08D
:10293E00B9EF14F01F0E0A64A7EF14F0A9EF14F00C
:10294E00B1EF14F05AEF14F0D89001360236033678
:10295E0004360A060A50D8A4B7EF14F0B9EF14F0F3
:10296E00ABEF14F00950D8B4BFEF14F0C1EF14F070
:10297E00C9EF14F0041E031E021E016C000E02228B
:10298E000322042201C001F002C002F003C003F0D2
:10299E0004C004F01200000E2814306E000E29142C
:1029AE00316E800E2A14326E7F0E2B14336E305021
:1029BE00311032103310D8A4E7EF14F0E9EF14F011
:1029CE00F1EF14F0000E286E000E296E000E2A6E26
:1029DE00000E2B6E000E2C14306E000E2D14316E68
:1029EE00800E2E14326E7F0E2F14336E3050311037
:1029FE0032103310D8A406EF15F008EF15F010EFD3
:102A0E0015F0000E2C6E000E2D6E000E2E6E000EAA
:102A1E002F6E2BAE15EF15F017EF15F020EF15F00A
:102A2E00286C291ED8B0292A2A1ED8B02A2A800E30
:102A3E002B562FAE25EF15F027EF15F030EF15F0D2
:102A4E002C6C2D1ED8B02D2A2E1ED8B02E2A800EFC
:102A5E002F56000E281A000E291A000E2A1A800E62
:102A6E002B1A000E2C1A000E2D1A000E2E1A800E86
:102A7E002F1A2C50285C2D5029582E502A582F5082
:102A8E002B58D8B04DEF15F04FEF15F052EF15F063
:102A9E00D89053EF15F0D8801200D4C00BF0D5C0EB
:102AAE000CF0D6C00DF0D7C00EF001C00BF002C076
:102ABE000CF003C00DF004C00EF00BC005F00CC0FE
:102ACE0006F00DC007F00EC008F0180E74EF15F0EA
:102ADE00D8900832073206320532E82E6FEF15F025
:102AEE000550096E0A6A09500A10D8A481EF15F034
:102AFE0083EF15F0A3EF15F0D8900B34056E0C3460
:102B0E00066E0D34076E0E34086E05500610071053
:102B1E000810D8A495EF15F097EF15F09DEF15F06E
:102B2E00000E026E020E016ED2EF15F0000E026E56
:102B3E00030E016ED2EF15F009280A10D8A4AAEFE1
:102B4E0015F0ACEF15F0CEEF15F00BC005F00CC084
:102B5E0006F00DC007F00EC008F0090ED89005362D
:102B6E00063607360836E82EB5EF15F00550061076
:102B7E0007100810D8B4C6EF15F0C9EF15F0010E06
:102B8E00CAEF15F0000E016E026AD2EF15F0000EBC
:102B9E00026E040E016E1200800E0001995DD8A027
:102BAE00DBEF15F0DDEF15F0E3EF15F0000EDF6F44
:102BBE004B0EDE6F49EF16F09B0EA46F97C0A7F079
:102BCE00995109E1020E985DD8A0F0EF15F0F2EFE1
:102BDE0015F0FEEF15F0FF0E9825B16FFF0E99213F
:102BEE00B26F000EAB6F000EAA6F06EF16F0000E5E
:102BFE00B26F010EB16F000EAB6F010EAA6FA70E72
:102C0E00936F9AC094F0A40E956F94EC18F093C045
:102C1E00A5F094C0A6F0000198519911D8B41AEFFE
:102C2E0016F01CEF16F049EF16F0A6BF21EF16F0C6
:102C3E0023EF16F049EF16F0FF0E98259F6FFF0E4B
:102C4E009921A06F9F51A55DA651800AA16FA05139
:102C5E00800AA159D8A036EF16F038EF16F040EFE3
:102C6E0016F0FF0E9825A26FFF0E9921A36F44EF69
:102C7E0016F0A5C0A2F0A6C0A3F09751A225D96E5A
:102C8E00DA6ADF6A12000350D8B450EF16F052EF32
:102C9E0016F05AEF16F00350D8A458EF16F05AEF6C
:102CAE0016F05FEF16F00150E5EC19F09EEF16F0FE
:102CBE000350D96EDA6A0A0ED926DE50DE10D8B469
:102CCE006BEF16F06DEF16F086EF16F00350D96E1F
:102CDE00DA6A0A0ED9260350E16EE26A030EE12685
:102CEE00DE50E65CE650800A086EDE50800A085818
:102CFE00D8B084EF16F086EF16F09EEF16F0035064
:102D0E00D96EDA6A030ED926DF50046E0350D96EDF
:102D1E00DA6ADF500424D96EDA6A01C0DFFF03508D
:102D2E00D96EDA6A030ED926DE2A000EDD221200D3
:102D3E00000E0114096E000E02140A6E800E0314AA
:102D4E000B6E7F0E04140C6E09500A100B100C1033
:102D5E00D8A4B4EF16F0B6EF16F0BEEF16F0000ED4
:102D6E00016E000E026E000E036E000E046E000E5B
:102D7E000514096E000E06140A6E800E07140B6EF3
:102D8E007F0E08140C6E09500A100B100C10D8A4EC
:102D9E00D3EF16F0D5EF16F0DDEF16F0000E056E40
:102DAE00000E066E000E076E000E086E055001181E
:102DBE000FE1065002180CE10750031809E1085004
:102DCE000418D8B4EDEF16F0EFEF16F0F2EF16F0A0
:102DDE00D890F3EF16F0D8801200000E0B6E000E96
:102DEE000A6E0750D96EDA6ADFCFF6FF080EF76E5D
:102DFE000800F5502A0AD8A407EF17F009EF17F0CC
:102E0E002FEF17F00750D96EDA6ADF2A0850D96E05
:102E1E00DA6A020EDF26DF5CD96EDA6ADECF0AF0DE
:102E2E00DECF0BF042EF17F00AC001F00BC002F03C
:102E3E00000E046E0A0E036EBAEC19F0095001244E
:102E4E000A6E000E02200B6E0750D96EDA6ADF2A68
:102E5E000750D96EDA6ADFCFF6FF080EF76E08005C
:102E6E00F550D00F096E090E096440EF17F042EFCE
:102E7E0017F01BEF17F00AC007F00BC008F0120096
:102E8E00000E2C6E000E2D6E800E2E6E440E2F6ECA
:102E9E00000E136E000E146EA00E156E400E166E02
:102EAE0041C001F042C002F0036A046A000E51EC08
:102EBE0012F001C00FF002C010F003C011F004C0F8
:102ECE0012F083EC0BF00FC028F010C029F011C0E7
:102EDE002AF012C02BF098EC0DF028C045F029C056
:102EEE0046F02AC047F02BC048F045C00FF046C050
:102EFE0010F047C011F048C012F0000E136E000E15
:102F0E00146EC80E156E420E166E83EC0BF00FC0CB
:102F1E0041F010C042F011C043F012C044F0120054
:102F2E0013BE9EEF17F09CEF17F0A2EF17F0000EF6
:102F3E00136E000E126E000E166E000E156EB2EFB0
:102F4E0017F0000E026E200E016E0FC003F04AEC59
:102F5E0016F0154A162A1250155C1650800A146E79
:102F6E001350800A1458D8A0BFEF17F0C1EF17F016
:102F7E00A8EF17F010C009F011C00AF00FC00BF047
:102F8E002BEC19F010C001F011C002F084EC19F016
:102F9E00125001240F6E13500220106E1200700E8C
:102FAE00D36E08EC19F0DEEC19F0000E9FEC19F060
:102FBE0001C0CEF002C0CFF0CEC041F0CFC042F083
:102FCE0047EC17F041C0CAF042C0CBF043C0CCF082
:102FDE0044C0CDF0CAC0B3F0CBC0B4F0CCC0B5F095
:102FEE00CDC0B6F065EC11F0060E0001C96F130EE0
:102FFE00C86FAD0EE82EFED7C82FFCD7C92FFAD753
:10300E0000D0DCEF17F000EF00F022EF18F004C054
:10301E00F6FF05C0F7FFF86A070EF76403D0080045
:10302E00F55005D0F6CFE1FFF7CFE2FFE7502BECDE
:10303E0013F0044A052A04C0F6FF05C0F7FFF86A2C
:10304E00070EF76403D00800F55005D0F6CFE1FF68
:10305E00F7CFE2FFE7500009D8A438EF18F03AEFA7
:10306E0018F00EEF18F01200056E52EF18F0045023
:10307E007F0F066E65EF18F00450BF0F066E65EFFA
:10308E0018F00450930F066E65EF18F00450D30F2E
:10309E00066E65EF18F00550010AD8B43EEF18F031
:1030AE00030AD8B443EF18F0010AD8B448EF18F069
:1030BE00070AD8B44DEF18F065EF18F00650BDECC6
:1030CE0013F0120004BE6EEF18F070EF18F07AEFE6
:1030DE0018F001C001F002C002F003C003F004C0FA
:1030EE0004F093EF18F001C005F002C006F003C023
:1030FE0007F004C008F0051E061E071E081E052A4E
:10310E00000E06220722082205C001F006C002F0BA
:10311E0007C003F008C004F0120094C096F0000E31
:10312E000001D96F000ED86FAAEF18F093C05DF0B2
:10313E00960E5E6E95C05FF06EEC10F05D50000165
:10314E00D8275E50D92396C0F6FF080EF76E0800FA
:10315E00F5500009D8A4B6EF18F0B8EF18F09DEFAF
:10316E0018F0D8C093F0D9C094F0120003C00AF042
:10317E0004C00BF001C008F002C009F0D7EF18F040
:10318E000AC0D9FF0BC0DAFFDF50076E0A4A0B2ABE
:10319E0008C0D9FF09C0DAFF07C0DFFF084A092AB5
:1031AE000506D8A00606052806E10628D8A4E2EFF3
:1031BE0018F0E4EF18F0C7EF18F01200000E2C1AFA
:1031CE00000E2D1A000E2E1A800E2F1A28C001F096
:1031DE0029C002F02AC003F02BC004F02CC005F069
:1031EE002DC006F02EC007F02FC008F023EC09F01A
:1031FE0001C028F002C029F003C02AF004C02BF051
:10320E001200000E956E000E8C6E340E046EF20ED1
:10321E00E82EFED7042EFCD7020EBDEC13F0280EBE
:10322E00BDEC13F00C0EBDEC13F0060EBDEC13F05E
:10323E00010EBDEC13F0060E046E300EE82EFED716
:10324E00042EFCD700D01200000E0E6E000E0D6E76
:10325E003AEF19F00CC001F0026A0BC003F04AEC11
:10326E0016F00D4A0E2A0D500924D96E0E500A2062
:10327E00DA6EDF500C6E0C50D8A448EF19F04AEFFE
:10328E0019F031EF19F0120001C005F002C006F07E
:10329E00032A0304046E04C0F6FF080EF76E05C081
:1032AE00D9FF06C0DAFF054A062A0800F5CFDFFF70
:1032BE00DF50D8A465EF19F067EF19F04FEF19F052
:1032CE0012000150021003100410D8B471EF19F05F
:1032DE0073EF19F07BEF19F0000E011A000E021AAF
:1032EE00000E031A800E041A01C001F002C002F093
:1032FE0003C003F004C004F0120001C003F002C0CA
:10330E0004F08CEF19F0014A022A01C0D9FF02C065
:10331E00DAFFDF50D8A496EF19F098EF19F08AEF84
:10332E0019F00350015C016E04500258026E120037
:10333E00056EC50EC2160538E842F80BC212C282DF
:10334E00C2B2ACEF19F0AEEF19F0A7EF19F0C350FF
:10335E00C4CF03F0046A03C004F0036A0310016EC5
:10336E000450026E120001500302F3CF05F0F4CFA9
:10337E0006F001500402F350062602500302F350E9
:10338E00062605C001F006C002F0120001EE00F0A4
:10339E00500EEE6AE806FDE100EED0F0110EEE6A78
:1033AE00E806FDE1000EF86E0001D6EF17F0010EF3
:0E33BE00C26E0E0EC16EA90EC06E120012007D
:00000001FF
